:100000003FC059C058C057C056C055C054C053C057
:1000100052C051C050C04FC04EC04DC04CC04BC06C
:100020005EC149C048C047C046C045C044C043C087
:1000300042C041C04AC050C056C05CC062C068C027
:100040006EC074C07AC080C086C08CC092C098C098
:100050009EC0A4C0AAC0B0C0B6C0BCC0C2C0C8C008
:10006000CEC0D4C0DAC0E0C0E6C0ECC0F2C0F8C078
:10007000FEC004C10AC110C116C11CC122C128C1E1
:1000800011241FBECFEFD2E0DEBFCDBF11E0A0E054
:10009000B1E0E8EAF3E002C005900D92AE31B1079D
:1000A000D9F721E0AEE1B1E001C01D92A032B20764
:1000B000E1F752D177C1A4CF90E08632910508F0E4
:1000C0000DC1FC01E65EFF4F099480E197E2909339
:1000D000890080938800089580E797E790938900CE
:1000E0008093880008958EEB90E790938900809329
:1000F0008800089582EB99E69093890080938800A8
:10010000089582E794E6909389008093880008958B
:100110008EEC9EE5909389008093880008958BE78C
:1001200099E59093890080938800089586E794E587
:100130009093890080938800089588EB9FE49093C2
:1001400089008093880008958CE79BE49093890050
:1001500080938800089586E097E4909389008093C7
:100160008800089589E093E4909389008093880043
:10017000089585E49FE39093890080938800089513
:1001800089EB9BE3909389008093880008958FE525
:1001900098E39093890080938800089585E395E320
:1001A0009093890080938800089588E392E3909368
:1001B000890080938800089587E69FE290938900E4
:1001C0008093880008958EEB9CE290938900809341
:1001D000880008958BE39AE29093890080938800C9
:1001E00008958CED97E2909389008093880008959C
:1001F00080EA95E29093890080938800089583E8CF
:1002000093E29093890080938800089585E891E2B5
:100210009093890080938800089583EA9FE19093EA
:1002200089008093880008958DED9DE19093890069
:1002300080938800089580E39CE1909389008093E7
:10024000880008958BE99AE1909389008093880053
:1002500008958CE199E19093890080938800089536
:1002600083EB97E1909389008093880008958FE550
:1002700096E1909389008093880008958EE195E13E
:10028000909389008093880008958EEE93E1909377
:10029000890080938800089580ED92E19093890011
:1002A00080938800089581EC91E190938900809378
:1002B0008800089582EC90E19093890080938800F3
:1002C000089582ED9FE090938900809388000895BF
:1002D0008EEE9EE0909389008093880008951F928F
:1002E0000F920FB60F9211242F933F934F935F936A
:1002F0006F937F938F939F93AF93BF93EF93FF93EE
:1003000080911E018A30A1F410921E01E0911F011C
:10031000EE3158F4F0E0E050FF4F8081CDDE809167
:100320001F018F5F80931F0106C010921F0103C041
:100330008F5F80931E01FF91EF91BF91AF919F91CD
:100340008F917F916F915F914F913F912F910F907E
:100350000FBE0F901F90189582E084B984E08AB98F
:1003600085E085BD81E080936E0080E4809380000D
:1003700089E080938100789484E08BB92FEF34E397
:100380009CE0215030409040E1F700C000001BB8D5
:100390002FEF34E39CE0215030409040E1F700C063
:0803A0000000EBCFF894FFCF41
:1003A8000D16161416120D0D0D1616171419191907
:0E03B800190F0F17171614121216161416121C
:00000001FF
